{
  "contractName": "YieldFarmer",
  "abi": [
    {
      "constant": true,
      "inputs": [
        {
          "name": "cTokenAddress",
          "type": "address"
        }
      ],
      "name": "getcTokenBalance",
      "outputs": [
        {
          "name": "",
          "type": "uint256"
        }
      ],
      "payable": false,
      "stateMutability": "view",
      "type": "function"
    },
    {
      "constant": true,
      "inputs": [],
      "name": "comptroller",
      "outputs": [
        {
          "name": "",
          "type": "address"
        }
      ],
      "payable": false,
      "stateMutability": "view",
      "type": "function"
    },
    {
      "constant": false,
      "inputs": [
        {
          "name": "cTokenAddress",
          "type": "address"
        }
      ],
      "name": "getBorrowBalance",
      "outputs": [
        {
          "name": "",
          "type": "uint256"
        }
      ],
      "payable": false,
      "stateMutability": "nonpayable",
      "type": "function"
    },
    {
      "constant": true,
      "inputs": [],
      "name": "owner",
      "outputs": [
        {
          "name": "",
          "type": "address"
        }
      ],
      "payable": false,
      "stateMutability": "view",
      "type": "function"
    },
    {
      "inputs": [
        {
          "name": "_comptroller",
          "type": "address"
        }
      ],
      "payable": false,
      "stateMutability": "nonpayable",
      "type": "constructor"
    },
    {
      "constant": false,
      "inputs": [
        {
          "name": "_solo",
          "type": "address"
        },
        {
          "name": "_token",
          "type": "address"
        },
        {
          "name": "_cToken",
          "type": "address"
        },
        {
          "name": "_amountProvided",
          "type": "uint256"
        },
        {
          "name": "_amountBorrowed",
          "type": "uint256"
        }
      ],
      "name": "openPosition",
      "outputs": [],
      "payable": false,
      "stateMutability": "nonpayable",
      "type": "function"
    },
    {
      "constant": false,
      "inputs": [
        {
          "name": "_solo",
          "type": "address"
        },
        {
          "name": "_token",
          "type": "address"
        },
        {
          "name": "_cToken",
          "type": "address"
        }
      ],
      "name": "closePosition",
      "outputs": [],
      "payable": false,
      "stateMutability": "nonpayable",
      "type": "function"
    },
    {
      "constant": false,
      "inputs": [
        {
          "name": "sender",
          "type": "address"
        },
        {
          "components": [
            {
              "name": "owner",
              "type": "address"
            },
            {
              "name": "number",
              "type": "uint256"
            }
          ],
          "name": "account",
          "type": "tuple"
        },
        {
          "name": "data",
          "type": "bytes"
        }
      ],
      "name": "callFunction",
      "outputs": [],
      "payable": false,
      "stateMutability": "nonpayable",
      "type": "function"
    }
  ],
  "bytecode": "0x60806040523480156200001157600080fd5b5060405160208062002b718339810180604052620000339190810190620000d3565b80806000806101000a81548173ffffffffffffffffffffffffffffffffffffffff021916908373ffffffffffffffffffffffffffffffffffffffff1602179055505033600160006101000a81548173ffffffffffffffffffffffffffffffffffffffff021916908373ffffffffffffffffffffffffffffffffffffffff1602179055505062000133565b6000620000cb8251620000ff565b905092915050565b600060208284031215620000e657600080fd5b6000620000f684828501620000bd565b91505092915050565b60006200010c8262000113565b9050919050565b600073ffffffffffffffffffffffffffffffffffffffff82169050919050565b612a2e80620001436000396000f3fe608060405234801561001057600080fd5b506004361061007d5760003560e01c80638b4187131161005b5780638b418713146101005780638da5cb5b1461011c578063d2ceba1f1461013a578063d9a9304f146101565761007d565b80631031cb5f146100825780635fe3b567146100b25780637d6af079146100d0575b600080fd5b61009c60048036036100979190810190611b58565b610172565b6040516100a9919061268b565b60405180910390f35b6100ba610204565b6040516100c79190612575565b60405180910390f35b6100ea60048036036100e59190810190611b58565b610229565b6040516100f7919061268b565b60405180910390f35b61011a60048036036101159190810190611c70565b6102bd565b005b610124610372565b6040516101319190612478565b60405180910390f35b610154600480360361014f9190810190611bf9565b610398565b005b610170600480360361016b9190810190611baa565b610440565b005b60008173ffffffffffffffffffffffffffffffffffffffff166370a08231306040518263ffffffff1660e01b81526004016101ad9190612478565b60206040518083038186803b1580156101c557600080fd5b505afa1580156101d9573d6000803e3d6000fd5b505050506040513d601f19601f820116820180604052506101fd9190810190611d6a565b9050919050565b6000809054906101000a900473ffffffffffffffffffffffffffffffffffffffff1681565b60008173ffffffffffffffffffffffffffffffffffffffff166317bfdfbc306040518263ffffffff1660e01b81526004016102649190612478565b602060405180830381600087803b15801561027e57600080fd5b505af1158015610292573d6000803e3d6000fd5b505050506040513d601f19601f820116820180604052506102b69190810190611d6a565b9050919050565b6102c5611757565b818060200190516102d99190810190611d41565b90506002808111156102e757fe5b816040015160028111156102f757fe5b141561033957610315816020015182608001518360600151016107dd565b61032281602001516109cb565b61033481602001518260800151610b59565b61036c565b61034b81602001518260800151610c36565b600061035a8260200151610172565b905061036a826020015182610e24565b505b50505050565b600160009054906101000a900473ffffffffffffffffffffffffffffffffffffffff1681565b600160009054906101000a900473ffffffffffffffffffffffffffffffffffffffff1673ffffffffffffffffffffffffffffffffffffffff163373ffffffffffffffffffffffffffffffffffffffff1614610428576040517f08c379a000000000000000000000000000000000000000000000000000000000815260040161041f906125f0565b60405180910390fd5b610439858585600280870386610f01565b5050505050565b600160009054906101000a900473ffffffffffffffffffffffffffffffffffffffff1673ffffffffffffffffffffffffffffffffffffffff163373ffffffffffffffffffffffffffffffffffffffff16146104d0576040517f08c379a00000000000000000000000000000000000000000000000000000000081526004016104c7906125f0565b60405180910390fd5b8173ffffffffffffffffffffffffffffffffffffffff166323b872dd333060026040518463ffffffff1660e01b815260040161050e93929190612493565b602060405180830381600087803b15801561052857600080fd5b505af115801561053c573d6000803e3d6000fd5b505050506040513d601f19601f820116820180604052506105609190810190611d18565b506105696111aa565b600061057482610229565b90506105868484846001600086610f01565b6000610590611238565b9050600081905060008173ffffffffffffffffffffffffffffffffffffffff166370a08231306040518263ffffffff1660e01b81526004016105d29190612478565b60206040518083038186803b1580156105ea57600080fd5b505afa1580156105fe573d6000803e3d6000fd5b505050506040513d601f19601f820116820180604052506106229190810190611d6a565b90508173ffffffffffffffffffffffffffffffffffffffff1663a9059cbb33836040518363ffffffff1660e01b815260040161065f9291906124ca565b602060405180830381600087803b15801561067957600080fd5b505af115801561068d573d6000803e3d6000fd5b505050506040513d601f19601f820116820180604052506106b19190810190611d18565b50600086905060008173ffffffffffffffffffffffffffffffffffffffff166370a08231306040518263ffffffff1660e01b81526004016106f29190612478565b60206040518083038186803b15801561070a57600080fd5b505afa15801561071e573d6000803e3d6000fd5b505050506040513d601f19601f820116820180604052506107429190810190611d6a565b90508173ffffffffffffffffffffffffffffffffffffffff1663a9059cbb33836040518363ffffffff1660e01b815260040161077f9291906124ca565b602060405180830381600087803b15801561079957600080fd5b505af11580156107ad573d6000803e3d6000fd5b505050506040513d601f19601f820116820180604052506107d19190810190611d18565b50505050505050505050565b600082905060008173ffffffffffffffffffffffffffffffffffffffff16636f307dc36040518163ffffffff1660e01b815260040160206040518083038186803b15801561082a57600080fd5b505afa15801561083e573d6000803e3d6000fd5b505050506040513d601f19601f820116820180604052506108629190810190611b81565b90508073ffffffffffffffffffffffffffffffffffffffff1663095ea7b385856040518363ffffffff1660e01b815260040161089f9291906124f3565b602060405180830381600087803b1580156108b957600080fd5b505af11580156108cd573d6000803e3d6000fd5b505050506040513d601f19601f820116820180604052506108f19190810190611d18565b5060008273ffffffffffffffffffffffffffffffffffffffff1663a0712d68856040518263ffffffff1660e01b815260040161092d919061268b565b602060405180830381600087803b15801561094757600080fd5b505af115801561095b573d6000803e3d6000fd5b505050506040513d601f19601f8201168201806040525061097f9190810190611d6a565b9050600081146109c4576040517f08c379a00000000000000000000000000000000000000000000000000000000081526004016109bb90612630565b60405180910390fd5b5050505050565b606060016040519080825280602002602001820160405280156109fd5781602001602082028038833980820191505090505b5090508181600081518110610a0e57fe5b602002602001019073ffffffffffffffffffffffffffffffffffffffff16908173ffffffffffffffffffffffffffffffffffffffff168152505060606000809054906101000a900473ffffffffffffffffffffffffffffffffffffffff1673ffffffffffffffffffffffffffffffffffffffff1663c2998238836040518263ffffffff1660e01b8152600401610aa4919061251c565b600060405180830381600087803b158015610abe57600080fd5b505af1158015610ad2573d6000803e3d6000fd5b505050506040513d6000823e3d601f19601f82011682018060405250610afb9190810190611cd7565b9050600081600081518110610b0c57fe5b602002602001015114610b54576040517f08c379a0000000000000000000000000000000000000000000000000000000008152600401610b4b906125b0565b60405180910390fd5b505050565b600082905060008173ffffffffffffffffffffffffffffffffffffffff1663c5ebeaec846040518263ffffffff1660e01b8152600401610b99919061268b565b602060405180830381600087803b158015610bb357600080fd5b505af1158015610bc7573d6000803e3d6000fd5b505050506040513d601f19601f82011682018060405250610beb9190810190611d6a565b905060008114610c30576040517f08c379a0000000000000000000000000000000000000000000000000000000008152600401610c2790612610565b60405180910390fd5b50505050565b600082905060008173ffffffffffffffffffffffffffffffffffffffff16636f307dc36040518163ffffffff1660e01b815260040160206040518083038186803b158015610c8357600080fd5b505afa158015610c97573d6000803e3d6000fd5b505050506040513d601f19601f82011682018060405250610cbb9190810190611b81565b90508073ffffffffffffffffffffffffffffffffffffffff1663095ea7b385856040518363ffffffff1660e01b8152600401610cf89291906124f3565b602060405180830381600087803b158015610d1257600080fd5b505af1158015610d26573d6000803e3d6000fd5b505050506040513d601f19601f82011682018060405250610d4a9190810190611d18565b5060008273ffffffffffffffffffffffffffffffffffffffff16630e752702856040518263ffffffff1660e01b8152600401610d86919061268b565b602060405180830381600087803b158015610da057600080fd5b505af1158015610db4573d6000803e3d6000fd5b505050506040513d601f19601f82011682018060405250610dd89190810190611d6a565b905060008114610e1d576040517f08c379a0000000000000000000000000000000000000000000000000000000008152600401610e1490612610565b60405180910390fd5b5050505050565b600082905060008173ffffffffffffffffffffffffffffffffffffffff1663db006a75846040518263ffffffff1660e01b8152600401610e64919061268b565b602060405180830381600087803b158015610e7e57600080fd5b505af1158015610e92573d6000803e3d6000fd5b505050506040513d601f19601f82011682018060405250610eb69190810190611d6a565b905060008114610efb576040517f08c379a0000000000000000000000000000000000000000000000000000000008152600401610ef290612650565b60405180910390fd5b50505050565b60008690506000610f1288886112de565b90506000610f1f84611490565b90508773ffffffffffffffffffffffffffffffffffffffff1663095ea7b38a836040518363ffffffff1660e01b8152600401610f5c9291906124f3565b602060405180830381600087803b158015610f7657600080fd5b505af1158015610f8a573d6000803e3d6000fd5b505050506040513d601f19601f82011682018060405250610fae9190810190611d18565b5060606003604051908082528060200260200182016040528015610fec57816020015b610fd96117bd565b815260200190600190039081610fd15790505b509050610ff983866114ad565b8160008151811061100657fe5b60200260200101819052506110966040518060a001604052808b73ffffffffffffffffffffffffffffffffffffffff1681526020018a73ffffffffffffffffffffffffffffffffffffffff16815260200189600281111561106357fe5b8152602001888152602001878152506040516020016110829190612670565b604051602081830303815290604052611566565b816001815181106110a357fe5b60200260200101819052506110b88383611610565b816002815181106110c557fe5b60200260200101819052506060600160405190808252806020026020018201604052801561110d57816020015b6110fa611829565b8152602001906001900390816110f25790505b5090506111186116c9565b8160008151811061112557fe5b60200260200101819052508473ffffffffffffffffffffffffffffffffffffffff1663a67a6a4582846040518363ffffffff1660e01b815260040161116b92919061253e565b600060405180830381600087803b15801561118557600080fd5b505af1158015611199573d6000803e3d6000fd5b505050505050505050505050505050565b6000809054906101000a900473ffffffffffffffffffffffffffffffffffffffff1673ffffffffffffffffffffffffffffffffffffffff1663e9af0292306040518263ffffffff1660e01b81526004016112049190612478565b600060405180830381600087803b15801561121e57600080fd5b505af1158015611232573d6000803e3d6000fd5b50505050565b60008060009054906101000a900473ffffffffffffffffffffffffffffffffffffffff1673ffffffffffffffffffffffffffffffffffffffff16639d1b5a0a6040518163ffffffff1660e01b815260040160206040518083038186803b1580156112a157600080fd5b505afa1580156112b5573d6000803e3d6000fd5b505050506040513d601f19601f820116820180604052506112d99190810190611b81565b905090565b60008083905060008173ffffffffffffffffffffffffffffffffffffffff1663295c39a56040518163ffffffff1660e01b815260040160206040518083038186803b15801561132c57600080fd5b505afa158015611340573d6000803e3d6000fd5b505050506040513d601f19601f820116820180604052506113649190810190611d6a565b9050600080600090505b8281101561144e578373ffffffffffffffffffffffffffffffffffffffff1663062bd3e9826040518263ffffffff1660e01b81526004016113af919061268b565b60206040518083038186803b1580156113c757600080fd5b505afa1580156113db573d6000803e3d6000fd5b505050506040513d601f19601f820116820180604052506113ff9190810190611b81565b91508573ffffffffffffffffffffffffffffffffffffffff168273ffffffffffffffffffffffffffffffffffffffff161415611441578094505050505061148a565b808060010191505061136e565b506040517f08c379a0000000000000000000000000000000000000000000000000000000008152600401611481906125d0565b60405180910390fd5b92915050565b60006114a660028361170290919063ffffffff16565b9050919050565b6114b5611859565b604051806101000160405280600160088111156114ce57fe5b8152602001600081526020016040518060800160405280600015158152602001600060018111156114fb57fe5b81526020016000600181111561150d57fe5b8152602001858152508152602001848152602001600081526020013073ffffffffffffffffffffffffffffffffffffffff1681526020016000815260200160405180602001604052806000815250815250905092915050565b61156e611859565b60405180610100016040528060088081111561158657fe5b8152602001600081526020016040518060800160405280600015158152602001600060018111156115b357fe5b8152602001600060018111156115c557fe5b81526020016000815250815260200160008152602001600081526020013073ffffffffffffffffffffffffffffffffffffffff16815260200160008152602001838152509050919050565b611618611859565b6040518061010001604052806000600881111561163157fe5b81526020016000815260200160405180608001604052806001151581526020016000600181111561165e57fe5b81526020016000600181111561167057fe5b8152602001858152508152602001848152602001600081526020013073ffffffffffffffffffffffffffffffffffffffff1681526020016000815260200160405180602001604052806000815250815250905092915050565b6116d16118c5565b60405180604001604052803073ffffffffffffffffffffffffffffffffffffffff1681526020016001815250905090565b60008082840190508381101561174d576040517f08c379a000000000000000000000000000000000000000000000000000000000815260040161174490612590565b60405180910390fd5b8091505092915050565b6040518060a00160405280600073ffffffffffffffffffffffffffffffffffffffff168152602001600073ffffffffffffffffffffffffffffffffffffffff168152602001600060028111156117a957fe5b815260200160008152602001600081525090565b604051806101600160405280600060088111156117d657fe5b8152602001600081526020016117ea6118f5565b81526020016000815260200160008152602001600073ffffffffffffffffffffffffffffffffffffffff16815260200160008152602001606081525090565b6040518060400160405280600073ffffffffffffffffffffffffffffffffffffffff168152602001600081525090565b6040518061016001604052806000600881111561187257fe5b8152602001600081526020016118866118f5565b81526020016000815260200160008152602001600073ffffffffffffffffffffffffffffffffffffffff16815260200160008152602001606081525090565b6040518060400160405280600073ffffffffffffffffffffffffffffffffffffffff168152602001600081525090565b60405180608001604052806000151581526020016000600181111561191657fe5b81526020016000600181111561192857fe5b8152602001600081525090565b6000611941823561288e565b905092915050565b6000611955825161288e565b905092915050565b600082601f83011261196e57600080fd5b815161198161197c826126d3565b6126a6565b915081818352602084019350602081019050838560208402820111156119a657600080fd5b60005b838110156119d657816119bc8882611b44565b8452602084019350602083019250506001810190506119a9565b5050505092915050565b60006119ec82516128a0565b905092915050565b600082601f830112611a0557600080fd5b8135611a18611a13826126fb565b6126a6565b91508082526020830160208301858383011115611a3457600080fd5b611a3f8382846129a1565b50505092915050565b6000611a5482516128ac565b905092915050565b600060408284031215611a6e57600080fd5b611a7860406126a6565b90506000611a8884828501611935565b6000830152506020611a9c84828501611b30565b60208301525092915050565b600060a08284031215611aba57600080fd5b611ac460a06126a6565b90506000611ad484828501611949565b6000830152506020611ae884828501611949565b6020830152506040611afc84828501611a48565b6040830152506060611b1084828501611b44565b6060830152506080611b2484828501611b44565b60808301525092915050565b6000611b3c82356128e3565b905092915050565b6000611b5082516128e3565b905092915050565b600060208284031215611b6a57600080fd5b6000611b7884828501611935565b91505092915050565b600060208284031215611b9357600080fd5b6000611ba184828501611949565b91505092915050565b600080600060608486031215611bbf57600080fd5b6000611bcd86828701611935565b9350506020611bde86828701611935565b9250506040611bef86828701611935565b9150509250925092565b600080600080600060a08688031215611c1157600080fd5b6000611c1f88828901611935565b9550506020611c3088828901611935565b9450506040611c4188828901611935565b9350506060611c5288828901611b30565b9250506080611c6388828901611b30565b9150509295509295909350565b600080600060808486031215611c8557600080fd5b6000611c9386828701611935565b9350506020611ca486828701611a5c565b925050606084013567ffffffffffffffff811115611cc157600080fd5b611ccd868287016119f4565b9150509250925092565b600060208284031215611ce957600080fd5b600082015167ffffffffffffffff811115611d0357600080fd5b611d0f8482850161195d565b91505092915050565b600060208284031215611d2a57600080fd5b6000611d38848285016119e0565b91505092915050565b600060a08284031215611d5357600080fd5b6000611d6184828501611aa8565b91505092915050565b600060208284031215611d7c57600080fd5b6000611d8a84828501611b44565b91505092915050565b6000611d9f8383611de6565b60208301905092915050565b6000611db783836122bb565b905092915050565b6000611dcb83836123c3565b60408301905092915050565b611de0816128ed565b82525050565b611def816127f6565b82525050565b611dfe816127f6565b82525050565b6000611e0f8261274e565b611e1981856127a1565b9350611e2483612727565b60005b82811015611e5257611e3a868351611d93565b9550611e458261277a565b9150600181019050611e27565b50849250505092915050565b6000611e6982612759565b611e7381856127b2565b935083602082028501611e8585612734565b60005b84811015611ebe578383038852611ea0838351611dab565b9250611eab82612787565b9150602088019750600181019050611e88565b508196508694505050505092915050565b6000611eda82612764565b611ee481856127c3565b9350611eef83612741565b60005b82811015611f1d57611f05868351611dbf565b9550611f1082612794565b9150600181019050611ef2565b50849250505092915050565b611f3281612808565b82525050565b6000611f438261276f565b611f4d81856127d4565b9350611f5d8185602086016129b0565b611f66816129e3565b840191505092915050565b611f7a816128ff565b82525050565b611f8981612923565b82525050565b611f9881612935565b82525050565b611fa781612947565b82525050565b611fb681612959565b82525050565b611fc58161296b565b82525050565b6000611fd8601b836127e5565b91507f536166654d6174683a206164646974696f6e206f766572666c6f7700000000006000830152602082019050919050565b6000612018604c836127e5565b91507f636f6d7074726f6c6c657223656e7465724d61726b65742829206661696c656460008301527f2e2073656520436f6d706f756e64204572726f725265706f727465722e736f6c60208301527f20666f722064657461696c7300000000000000000000000000000000000000006040830152606082019050919050565b60006120a46024836127e5565b91507f4e6f206d61726b6574496420666f756e6420666f722070726f7669646564207460008301527f6f6b656e000000000000000000000000000000000000000000000000000000006020830152604082019050919050565b600061210a600a836127e5565b91507f6f6e6c79206f776e6572000000000000000000000000000000000000000000006000830152602082019050919050565b600061214a6042836127e5565b91507f63546f6b656e23626f72726f772829206661696c65642e2073656520436f6d7060008301527f6f756e64204572726f725265706f727465722e736f6c20666f7220646574616960208301527f6c730000000000000000000000000000000000000000000000000000000000006040830152606082019050919050565b60006121d66040836127e5565b91507f63546f6b656e236d696e742829206661696c65642e2073656520436f6d706f7560008301527f6e64204572726f725265706f727465722e736f6c20666f722064657461696c736020830152604082019050919050565b600061223c6047836127e5565b91507f63546f6b656e2372656465656d2829206661696c65642e2073656520436f6d7060008301527f6f756e64204572726f725265706f727465722e736f6c20666f72206d6f72652060208301527f64657461696c73000000000000000000000000000000000000000000000000006040830152606082019050919050565b6000610160830160008301516122d46000860182611f80565b5060208301516122e7602086018261245a565b5060408301516122fa604086018261236e565b50606083015161230d60c086018261245a565b50608083015161232060e086018261245a565b5060a0830151612334610100860182611de6565b5060c083015161234861012086018261245a565b5060e08301518482036101408601526123618282611f38565b9150508091505092915050565b6080820160008201516123846000850182611f29565b5060208201516123976020850182611f8f565b5060408201516123aa6040850182611f9e565b5060608201516123bd606085018261245a565b50505050565b6040820160008201516123d96000850182611de6565b5060208201516123ec602085018261245a565b50505050565b60a0820160008201516124086000850182611de6565b50602082015161241b6020850182611de6565b50604082015161242e6040850182611fad565b506060820151612441606085018261245a565b506080820151612454608085018261245a565b50505050565b61246381612884565b82525050565b61247281612884565b82525050565b600060208201905061248d6000830184611df5565b92915050565b60006060820190506124a86000830186611dd7565b6124b56020830185611df5565b6124c26040830184611fbc565b949350505050565b60006040820190506124df6000830185611dd7565b6124ec6020830184612469565b9392505050565b60006040820190506125086000830185611df5565b6125156020830184612469565b9392505050565b600060208201905081810360008301526125368184611e04565b905092915050565b600060408201905081810360008301526125588185611ecf565b9050818103602083015261256c8184611e5e565b90509392505050565b600060208201905061258a6000830184611f71565b92915050565b600060208201905081810360008301526125a981611fcb565b9050919050565b600060208201905081810360008301526125c98161200b565b9050919050565b600060208201905081810360008301526125e981612097565b9050919050565b60006020820190508181036000830152612609816120fd565b9050919050565b600060208201905081810360008301526126298161213d565b9050919050565b60006020820190508181036000830152612649816121c9565b9050919050565b600060208201905081810360008301526126698161222f565b9050919050565b600060a08201905061268560008301846123f2565b92915050565b60006020820190506126a06000830184612469565b92915050565b6000604051905081810181811067ffffffffffffffff821117156126c957600080fd5b8060405250919050565b600067ffffffffffffffff8211156126ea57600080fd5b602082029050602081019050919050565b600067ffffffffffffffff82111561271257600080fd5b601f19601f8301169050602081019050919050565b6000602082019050919050565b6000602082019050919050565b6000602082019050919050565b600081519050919050565b600081519050919050565b600081519050919050565b600081519050919050565b6000602082019050919050565b6000602082019050919050565b6000602082019050919050565b600082825260208201905092915050565b600082825260208201905092915050565b600082825260208201905092915050565b600082825260208201905092915050565b600082825260208201905092915050565b600061280182612864565b9050919050565b60008115159050919050565b60006009821061282057fe5b819050919050565b60006002821061283457fe5b819050919050565b60006002821061284857fe5b819050919050565b60006003821061285c57fe5b819050919050565b600073ffffffffffffffffffffffffffffffffffffffff82169050919050565b6000819050919050565b6000612899826128c3565b9050919050565b60008115159050919050565b6000600382106128bb57600080fd5b819050919050565b600073ffffffffffffffffffffffffffffffffffffffff82169050919050565b6000819050919050565b60006128f88261297d565b9050919050565b600061290a82612911565b9050919050565b600061291c82612864565b9050919050565b600061292e82612814565b9050919050565b600061294082612828565b9050919050565b60006129528261283c565b9050919050565b600061296482612850565b9050919050565b600061297682612884565b9050919050565b60006129888261298f565b9050919050565b600061299a82612864565b9050919050565b82818337600083830152505050565b60005b838110156129ce5780820151818401526020810190506129b3565b838111156129dd576000848401525b50505050565b6000601f19601f830116905091905056fea265627a7a72305820130e1bfeb3e286e857eb4f7601829a24b3b5e9ac2d538aec9125dceef0e4df656c6578706572696d656e74616cf50037",
  "source": "pragma solidity ^0.5.7;\r\npragma experimental ABIEncoderV2;\r\n\r\nimport \"@studydefi/money-legos/dydx/contracts/DydxFlashloanBase.sol\";\r\nimport '@studydefi/money-legos/dydx/contracts/ICallee.sol';\r\nimport '@openzeppelin/contracts/token/ERC20/IERC20.sol';\r\nimport './Compound.sol';\r\n\r\ncontract YieldFarmer is ICallee, DydxFlashloanBase, Compound {\r\n    enum Direction { DEposit, Withdraw, Deposit }\r\n    //define whate we wanna do\r\n    struct Operation{\r\n        address token;\r\n        address cToken;\r\n        Direction direction;\r\n        uint amountProvided;\r\n        uint amountBorrowed;\r\n    }\r\n    address public owner;\r\n\r\n    constructor(address _comptroller) Compound(_comptroller) public {\r\n        //set the address of the owner\r\n        owner = msg.sender;        \r\n    }\r\n\r\n    function openPosition(\r\n        address _solo,\r\n        address _token,\r\n        address _cToken,\r\n        //provide a part of the token we want to invest in the compound\r\n        uint _amountProvided,\r\n        uint _amountBorrowed\r\n    ) external {\r\n        //protect the external function \r\n        require(msg.sender == owner, 'only owner');\r\n          //-2 to pay 2 way for the flashloan\r\n        _initiateFlashloan(_solo, _token, _cToken, Direction.Deposit, _amountProvided - 2, _amountBorrowed);\r\n    }\r\n\r\n    function closePosition(\r\n        address _solo,\r\n        address _token,\r\n        address _cToken\r\n    ) external {\r\n        require(msg.sender == owner, 'only owner');\r\n        //transfer 2 wei to this contract in order to pay for the flashloan\r\n        IERC20(_token).transferFrom(msg.sender, address(this), 2);\r\n        //claim our comp token as the reward for lender and borrower\r\n        claimComp();\r\n        //get borrow balance\r\n        uint borrowBalance = getBorrowBalance(_cToken);\r\n        //reimburse\r\n        _initiateFlashloan(_solo, _token, _cToken, Direction.Withdraw, 0, borrowBalance);\r\n        //transfer comp token to the sender of the transaction\r\n        address compAddress = getCompAddress();\r\n        //pointer to the comp token\r\n        IERC20 comp = IERC20(compAddress);\r\n        //get our balance of the comp\r\n        uint compBalance = comp.balanceOf(address(this));\r\n        //transfer to the sender of the transaction\r\n        comp.transfer(msg.sender, compBalance);\r\n        //transfer the underlying token to the sender of the transaction\r\n        //pointer\r\n        IERC20 token = IERC20(_token);\r\n        //get a token balance with the balance function\r\n        uint tokenBalance = token.balanceOf(address(this));\r\n        //transfer token to the sender\r\n        token.transfer(msg.sender, tokenBalance);\r\n    }\r\n\r\n    function callFunction(        \r\n        address sender,\r\n        //teel us who borrowed the money\r\n        Account.Info memory account,\r\n        bytes memory data\r\n    ) public {\r\n        Operation memory operation = abi.decode(data, (Operation));\r\n        //test amount we provided + amount from the flashloan\r\n        if(operation.direction == Direction.Deposit) {\r\n            //lend the money to compound\r\n            supply(operation.cToken, operation.amountProvided + operation.amountBorrowed);\r\n            //call the enter market function after we can leverage our collateral in order to borrow\r\n            enterMarket(operation.cToken);\r\n            //defined in Compound.sol, borrow the same amount we borrowed from the flashloan\r\n            borrow(operation.cToken, operation.amountBorrowed);\r\n            //we don't borrow as much as a supply is because with compund it's not possible\r\n            //we use a part of our collateral to cover a borrow\r\n        } else {\r\n            repayBorrow(operation.cToken, operation.amountBorrowed);\r\n            //specify ctoken balance owned by the smart contract\r\n            uint cTokenBalance = getcTokenBalance(operation.cToken);\r\n            //specify how much of the cToken we want to redeem\r\n            //the underlying token will be back in our smart contract after this\r\n            redeem(operation.cToken, cTokenBalance);\r\n        }\r\n      \r\n    }\r\n\r\n    function _initiateFlashloan(\r\n    address _solo, \r\n    //token we want to borrow\r\n    address _token, \r\n    address _cToken,\r\n    //direction to reimburse money\r\n    Direction _direction,\r\n    uint _amountProvided, \r\n    //borrowed from the flashloan\r\n    uint _amountBorrowed\r\n  )\r\n    internal\r\n  {\r\n    ISoloMargin solo = ISoloMargin(_solo);\r\n\r\n    // Get marketId from token address\r\n    uint256 marketId = _getMarketIdFromTokenAddress(_solo, _token);\r\n\r\n    // Calculate repay amount (_amount + (2 wei))\r\n    // Approve transfer from\r\n    //amount we borrow + 2 wei (cost of the flashloan)\r\n    uint256 repayAmount = _getRepaymentAmountInternal(_amountBorrowed);\r\n    IERC20(_token).approve(_solo, repayAmount);\r\n\r\n    // 1. Withdraw $\r\n    // 2. Call callFunction(...)\r\n    // 3. Deposit back $\r\n    Actions.ActionArgs[] memory operations = new Actions.ActionArgs[](3);\r\n\r\n    operations[0] = _getWithdrawAction(marketId, _amountBorrowed);\r\n    operations[1] = _getCallAction(\r\n        // Encode MyCustomData for callFunction\r\n        abi.encode(Operation({\r\n          token: _token, \r\n          cToken: _cToken, \r\n          direction: _direction,\r\n          amountProvided: _amountProvided, \r\n          amountBorrowed: _amountBorrowed\r\n        }))\r\n    );\r\n    //reimburse the flashloan\r\n    operations[2] = _getDepositAction(marketId, repayAmount);\r\n\r\n    Account.Info[] memory accountInfos = new Account.Info[](1);\r\n    accountInfos[0] = _getAccountInfo();\r\n    //initiate the flashloan\r\n    solo.operate(accountInfos, operations);\r\n  }\r\n}",
  "sourcePath": "C:\\Users\\const\\Desktop\\Defi\\yield\\contracts\\YieldFarmer.sol",
  "compiler": {
    "name": "solc",
    "version": "0.5.7+commit.6da8b019.Emscripten.clang"
  },
  "schemaVersion": "3.4.2",
  "updatedAt": "2021-09-07T20:47:19.709Z",
  "devdoc": {
    "methods": {}
  },
  "userdoc": {
    "methods": {}
  }
}